{
  "abi": [
    {
      "inputs": [],
      "stateMutability": "nonpayable",
      "type": "constructor"
    },
    {
      "anonymous": false,
      "inputs": [
        {
          "indexed": true,
          "internalType": "address",
          "name": "owner",
          "type": "address"
        },
        {
          "indexed": true,
          "internalType": "address",
          "name": "spender",
          "type": "address"
        },
        {
          "indexed": true,
          "internalType": "uint256",
          "name": "id",
          "type": "uint256"
        }
      ],
      "name": "Approval",
      "type": "event"
    },
    {
      "anonymous": false,
      "inputs": [
        {
          "indexed": true,
          "internalType": "address",
          "name": "owner",
          "type": "address"
        },
        {
          "indexed": true,
          "internalType": "address",
          "name": "operator",
          "type": "address"
        },
        {
          "indexed": false,
          "internalType": "bool",
          "name": "approved",
          "type": "bool"
        }
      ],
      "name": "ApprovalForAll",
      "type": "event"
    },
    {
      "anonymous": false,
      "inputs": [
        {
          "indexed": true,
          "internalType": "address",
          "name": "minter",
          "type": "address"
        },
        {
          "indexed": true,
          "internalType": "uint256",
          "name": "tokenId",
          "type": "uint256"
        },
        {
          "indexed": true,
          "internalType": "string",
          "name": "indexedContentId",
          "type": "string"
        },
        {
          "indexed": false,
          "internalType": "string",
          "name": "contentId",
          "type": "string"
        }
      ],
      "name": "Mint",
      "type": "event"
    },
    {
      "anonymous": false,
      "inputs": [
        {
          "indexed": true,
          "internalType": "address",
          "name": "from",
          "type": "address"
        },
        {
          "indexed": true,
          "internalType": "address",
          "name": "to",
          "type": "address"
        },
        {
          "indexed": true,
          "internalType": "uint256",
          "name": "id",
          "type": "uint256"
        }
      ],
      "name": "Transfer",
      "type": "event"
    },
    {
      "inputs": [
        {
          "internalType": "address",
          "name": "spender",
          "type": "address"
        },
        {
          "internalType": "uint256",
          "name": "id",
          "type": "uint256"
        }
      ],
      "name": "approve",
      "outputs": [],
      "stateMutability": "nonpayable",
      "type": "function"
    },
    {
      "inputs": [
        {
          "internalType": "address",
          "name": "owner",
          "type": "address"
        }
      ],
      "name": "balanceOf",
      "outputs": [
        {
          "internalType": "uint256",
          "name": "",
          "type": "uint256"
        }
      ],
      "stateMutability": "view",
      "type": "function"
    },
    {
      "inputs": [
        {
          "internalType": "uint256",
          "name": "",
          "type": "uint256"
        }
      ],
      "name": "contentIdentifierByTokenId",
      "outputs": [
        {
          "internalType": "string",
          "name": "",
          "type": "string"
        }
      ],
      "stateMutability": "view",
      "type": "function"
    },
    {
      "inputs": [
        {
          "internalType": "uint256",
          "name": "",
          "type": "uint256"
        }
      ],
      "name": "getApproved",
      "outputs": [
        {
          "internalType": "address",
          "name": "",
          "type": "address"
        }
      ],
      "stateMutability": "view",
      "type": "function"
    },
    {
      "inputs": [
        {
          "internalType": "address",
          "name": "",
          "type": "address"
        },
        {
          "internalType": "address",
          "name": "",
          "type": "address"
        }
      ],
      "name": "isApprovedForAll",
      "outputs": [
        {
          "internalType": "bool",
          "name": "",
          "type": "bool"
        }
      ],
      "stateMutability": "view",
      "type": "function"
    },
    {
      "inputs": [
        {
          "internalType": "address",
          "name": "to",
          "type": "address"
        },
        {
          "internalType": "string",
          "name": "cid",
          "type": "string"
        }
      ],
      "name": "mint",
      "outputs": [],
      "stateMutability": "nonpayable",
      "type": "function"
    },
    {
      "inputs": [],
      "name": "name",
      "outputs": [
        {
          "internalType": "string",
          "name": "",
          "type": "string"
        }
      ],
      "stateMutability": "view",
      "type": "function"
    },
    {
      "inputs": [
        {
          "internalType": "uint256",
          "name": "id",
          "type": "uint256"
        }
      ],
      "name": "ownerOf",
      "outputs": [
        {
          "internalType": "address",
          "name": "owner",
          "type": "address"
        }
      ],
      "stateMutability": "view",
      "type": "function"
    },
    {
      "inputs": [
        {
          "internalType": "address",
          "name": "from",
          "type": "address"
        },
        {
          "internalType": "address",
          "name": "to",
          "type": "address"
        },
        {
          "internalType": "uint256",
          "name": "id",
          "type": "uint256"
        }
      ],
      "name": "safeTransferFrom",
      "outputs": [],
      "stateMutability": "nonpayable",
      "type": "function"
    },
    {
      "inputs": [
        {
          "internalType": "address",
          "name": "from",
          "type": "address"
        },
        {
          "internalType": "address",
          "name": "to",
          "type": "address"
        },
        {
          "internalType": "uint256",
          "name": "id",
          "type": "uint256"
        },
        {
          "internalType": "bytes",
          "name": "data",
          "type": "bytes"
        }
      ],
      "name": "safeTransferFrom",
      "outputs": [],
      "stateMutability": "nonpayable",
      "type": "function"
    },
    {
      "inputs": [
        {
          "internalType": "address",
          "name": "operator",
          "type": "address"
        },
        {
          "internalType": "bool",
          "name": "approved",
          "type": "bool"
        }
      ],
      "name": "setApprovalForAll",
      "outputs": [],
      "stateMutability": "nonpayable",
      "type": "function"
    },
    {
      "inputs": [
        {
          "internalType": "bytes4",
          "name": "interfaceId",
          "type": "bytes4"
        }
      ],
      "name": "supportsInterface",
      "outputs": [
        {
          "internalType": "bool",
          "name": "",
          "type": "bool"
        }
      ],
      "stateMutability": "view",
      "type": "function"
    },
    {
      "inputs": [],
      "name": "symbol",
      "outputs": [
        {
          "internalType": "string",
          "name": "",
          "type": "string"
        }
      ],
      "stateMutability": "view",
      "type": "function"
    },
    {
      "inputs": [
        {
          "internalType": "uint256",
          "name": "id",
          "type": "uint256"
        }
      ],
      "name": "tokenURI",
      "outputs": [
        {
          "internalType": "string",
          "name": "",
          "type": "string"
        }
      ],
      "stateMutability": "view",
      "type": "function"
    },
    {
      "inputs": [
        {
          "internalType": "address",
          "name": "from",
          "type": "address"
        },
        {
          "internalType": "address",
          "name": "to",
          "type": "address"
        },
        {
          "internalType": "uint256",
          "name": "id",
          "type": "uint256"
        }
      ],
      "name": "transferFrom",
      "outputs": [],
      "stateMutability": "nonpayable",
      "type": "function"
    }
  ],
  "bytecode": {
    "object": "0x60806040523480156200001157600080fd5b50604080518082018252600a815269436f6c6c6f717569756d60b01b60208083019182528351808501909452600384526210d3d360ea1b9084015281519192916200005f916000916200007e565b508051620000759060019060208401906200007e565b50505062000160565b8280546200008c9062000124565b90600052602060002090601f016020900481019282620000b05760008555620000fb565b82601f10620000cb57805160ff1916838001178555620000fb565b82800160010185558215620000fb579182015b82811115620000fb578251825591602001919060010190620000de565b50620001099291506200010d565b5090565b5b808211156200010957600081556001016200010e565b600181811c908216806200013957607f821691505b6020821081036200015a57634e487b7160e01b600052602260045260246000fd5b50919050565b61111d80620001706000396000f3fe608060405234801561001057600080fd5b50600436106100f55760003560e01c80636352211e11610097578063b88d4fde11610066578063b88d4fde14610215578063c87b56dd14610228578063d0def5211461023b578063e985e9c51461024e57600080fd5b80636352211e146101c657806370a08231146101d957806395d89b41146101fa578063a22cb4651461020257600080fd5b8063095ea7b3116100d3578063095ea7b31461017857806323b872dd1461018d578063246bf622146101a057806342842e0e146101b357600080fd5b806301ffc9a7146100fa57806306fdde0314610122578063081812fc14610137575b600080fd5b61010d610108366004610c6c565b61027c565b60405190151581526020015b60405180910390f35b61012a6102ce565b6040516101199190610c90565b610160610145366004610ce5565b6004602052600090815260409020546001600160a01b031681565b6040516001600160a01b039091168152602001610119565b61018b610186366004610d15565b61035c565b005b61018b61019b366004610d3f565b610443565b61012a6101ae366004610ce5565b61060a565b61018b6101c1366004610d3f565b610623565b6101606101d4366004610ce5565b6106f8565b6101ec6101e7366004610d7b565b61074f565b604051908152602001610119565b61012a6107b2565b61018b610210366004610d96565b6107bf565b61018b610223366004610e1b565b61082b565b61012a610236366004610ce5565b6108f0565b61018b610249366004610e8a565b61092b565b61010d61025c366004610edd565b600560209081526000928352604080842090915290825290205460ff1681565b60006301ffc9a760e01b6001600160e01b0319831614806102ad57506380ac58cd60e01b6001600160e01b03198316145b806102c85750635b5e139f60e01b6001600160e01b03198316145b92915050565b600080546102db90610f10565b80601f016020809104026020016040519081016040528092919081815260200182805461030790610f10565b80156103545780601f1061032957610100808354040283529160200191610354565b820191906000526020600020905b81548152906001019060200180831161033757829003601f168201915b505050505081565b6000818152600260205260409020546001600160a01b0316338114806103a557506001600160a01b038116600090815260056020908152604080832033845290915290205460ff165b6103e75760405162461bcd60e51b815260206004820152600e60248201526d1393d517d055551213d49256915160921b60448201526064015b60405180910390fd5b60008281526004602052604080822080546001600160a01b0319166001600160a01b0387811691821790925591518593918516917f8c5be1e5ebec7d5bd14f71427d1e84f3dd0314c0f7b2291e5b200ac8c7c3b92591a4505050565b6000818152600260205260409020546001600160a01b038481169116146104995760405162461bcd60e51b815260206004820152600a60248201526957524f4e475f46524f4d60b01b60448201526064016103de565b6001600160a01b0382166104e35760405162461bcd60e51b81526020600482015260116024820152701253959053125117d49150d25412515395607a1b60448201526064016103de565b336001600160a01b038416148061051d57506001600160a01b038316600090815260056020908152604080832033845290915290205460ff165b8061053e57506000818152600460205260409020546001600160a01b031633145b61057b5760405162461bcd60e51b815260206004820152600e60248201526d1393d517d055551213d49256915160921b60448201526064016103de565b6001600160a01b0380841660008181526003602090815260408083208054600019019055938616808352848320805460010190558583526002825284832080546001600160a01b03199081168317909155600490925284832080549092169091559251849392917fddf252ad1be2c89b69c2b068fc378daa952ba7f163c4a11628f55a4df523b3ef91a4505050565b600660205260009081526040902080546102db90610f10565b61062e838383610443565b6001600160a01b0382163b15806106d75750604051630a85bd0160e11b8082523360048301526001600160a01b03858116602484015260448301849052608060648401526000608484015290919084169063150b7a029060a4016020604051808303816000875af11580156106a7573d6000803e3d6000fd5b505050506040513d601f19601f820116820180604052508101906106cb9190610f4a565b6001600160e01b031916145b6106f35760405162461bcd60e51b81526004016103de90610f67565b505050565b6000818152600260205260409020546001600160a01b03168061074a5760405162461bcd60e51b815260206004820152600a6024820152691393d517d3525395115160b21b60448201526064016103de565b919050565b60006001600160a01b0382166107965760405162461bcd60e51b815260206004820152600c60248201526b5a45524f5f4144445245535360a01b60448201526064016103de565b506001600160a01b031660009081526003602052604090205490565b600180546102db90610f10565b3360008181526005602090815260408083206001600160a01b03871680855290835292819020805460ff191686151590811790915590519081529192917f17307eab39ab6107e8899845ad3d59bd9653f200f220920489ca2b5937696c31910160405180910390a35050565b610836858585610443565b6001600160a01b0384163b15806108cd5750604051630a85bd0160e11b808252906001600160a01b0386169063150b7a029061087e9033908a90899089908990600401610fba565b6020604051808303816000875af115801561089d573d6000803e3d6000fd5b505050506040513d601f19601f820116820180604052508101906108c19190610f4a565b6001600160e01b031916145b6108e95760405162461bcd60e51b81526004016103de90610f67565b5050505050565b6060600660008381526020019081526020016000206040516020016109159190610ff9565b6040516020818303038152906040529050919050565b600082826040516020016109409291906110bb565b60408051601f198184030181529181528151602092830120600081815260069093529120909150610972908484610bba565b5061097d84826109df565b828260405161098d9291906110d7565b604051809103902081856001600160a01b03167ff2cbb0418e3132958dca4cc2e9ab525cf64488dfc7c0eaa45cdeb6c42b30490a86866040516109d19291906110bb565b60405180910390a450505050565b6109e98282610aaf565b6001600160a01b0382163b1580610a8f5750604051630a85bd0160e11b80825233600483015260006024830181905260448301849052608060648401526084830152906001600160a01b0384169063150b7a029060a4016020604051808303816000875af1158015610a5f573d6000803e3d6000fd5b505050506040513d601f19601f82011682018060405250810190610a839190610f4a565b6001600160e01b031916145b610aab5760405162461bcd60e51b81526004016103de90610f67565b5050565b6001600160a01b038216610af95760405162461bcd60e51b81526020600482015260116024820152701253959053125117d49150d25412515395607a1b60448201526064016103de565b6000818152600260205260409020546001600160a01b031615610b4f5760405162461bcd60e51b815260206004820152600e60248201526d1053149150511657d3525395115160921b60448201526064016103de565b6001600160a01b038216600081815260036020908152604080832080546001019055848352600290915280822080546001600160a01b0319168417905551839291907fddf252ad1be2c89b69c2b068fc378daa952ba7f163c4a11628f55a4df523b3ef908290a45050565b828054610bc690610f10565b90600052602060002090601f016020900481019282610be85760008555610c2e565b82601f10610c015782800160ff19823516178555610c2e565b82800160010185558215610c2e579182015b82811115610c2e578235825591602001919060010190610c13565b50610c3a929150610c3e565b5090565b5b80821115610c3a5760008155600101610c3f565b6001600160e01b031981168114610c6957600080fd5b50565b600060208284031215610c7e57600080fd5b8135610c8981610c53565b9392505050565b600060208083528351808285015260005b81811015610cbd57858101830151858201604001528201610ca1565b81811115610ccf576000604083870101525b50601f01601f1916929092016040019392505050565b600060208284031215610cf757600080fd5b5035919050565b80356001600160a01b038116811461074a57600080fd5b60008060408385031215610d2857600080fd5b610d3183610cfe565b946020939093013593505050565b600080600060608486031215610d5457600080fd5b610d5d84610cfe565b9250610d6b60208501610cfe565b9150604084013590509250925092565b600060208284031215610d8d57600080fd5b610c8982610cfe565b60008060408385031215610da957600080fd5b610db283610cfe565b915060208301358015158114610dc757600080fd5b809150509250929050565b60008083601f840112610de457600080fd5b50813567ffffffffffffffff811115610dfc57600080fd5b602083019150836020828501011115610e1457600080fd5b9250929050565b600080600080600060808688031215610e3357600080fd5b610e3c86610cfe565b9450610e4a60208701610cfe565b935060408601359250606086013567ffffffffffffffff811115610e6d57600080fd5b610e7988828901610dd2565b969995985093965092949392505050565b600080600060408486031215610e9f57600080fd5b610ea884610cfe565b9250602084013567ffffffffffffffff811115610ec457600080fd5b610ed086828701610dd2565b9497909650939450505050565b60008060408385031215610ef057600080fd5b610ef983610cfe565b9150610f0760208401610cfe565b90509250929050565b600181811c90821680610f2457607f821691505b602082108103610f4457634e487b7160e01b600052602260045260246000fd5b50919050565b600060208284031215610f5c57600080fd5b8151610c8981610c53565b60208082526010908201526f155394d0519157d49150d2541251539560821b604082015260600190565b81835281816020850137506000828201602090810191909152601f909101601f19169091010190565b6001600160a01b0386811682528516602082015260408101849052608060608201819052600090610fee9083018486610f91565b979650505050505050565b7468747470733a2f2f697066732e696f2f697066732f60581b8152600060156000845481600182811c91508083168061103357607f831692505b6020808410820361105257634e487b7160e01b86526022600452602486fd5b818015611066576001811461107b576110ac565b60ff1986168a890152848a01880196506110ac565b60008b81526020902060005b868110156110a25781548c82018b0152908501908301611087565b505087858b010196505b50949998505050505050505050565b6020815260006110cf602083018486610f91565b949350505050565b818382376000910190815291905056fea26469706673582212204951401f5364bde23160ea17fccd1e4d5f8df1845094f176105d7007d00be46464736f6c634300080d0033",
    "linkReferences": {}
  },
  "methodIdentifiers": {
    "approve(address,uint256)": "095ea7b3",
    "balanceOf(address)": "70a08231",
    "contentIdentifierByTokenId(uint256)": "246bf622",
    "getApproved(uint256)": "081812fc",
    "isApprovedForAll(address,address)": "e985e9c5",
    "mint(address,string)": "d0def521",
    "name()": "06fdde03",
    "ownerOf(uint256)": "6352211e",
    "safeTransferFrom(address,address,uint256)": "42842e0e",
    "safeTransferFrom(address,address,uint256,bytes)": "b88d4fde",
    "setApprovalForAll(address,bool)": "a22cb465",
    "supportsInterface(bytes4)": "01ffc9a7",
    "symbol()": "95d89b41",
    "tokenURI(uint256)": "c87b56dd",
    "transferFrom(address,address,uint256)": "23b872dd"
  },
  "id": 8
}